:020000040800F2
:10000000D0050020010100083D300008352A000815
:100010003930000841050008393C000800000000A4
:100020000000000000000000000000002D3A000861
:100030005D050008000000001D370008653B000852
:100040001B0100081B0100081B0100081B01000820
:100050001B0100081B0100081B0100081B01000810
:100060001B0100081B0100081B0100081B01000800
:100070001B0100081B010008450500085105000888
:100080001B0100081B0100081B0100081B010008E0
:100090001B0100081B0100081B0100081B010008D0
:1000A0001B0100081B0100081B0100081B010008C0
:1000B0001B0100081B0100081B0100081B010008B0
:1000C0001B0100081B0100081B0100081B010008A0
:1000D0001B0100081B0100081B0100081B01000890
:1000E0001B0100081B0100081B010008DFF80CD0F1
:1000F00000F0A8F900480047BD3E0008D0050020E8
:100100000648804706480047FEE7FEE7FEE7FEE7B1
:10011000FEE7FEE7FEE7FEE7FEE7FEE7693B0008D5
:10012000ED0000082DE9FE4F81EA030404F00044CD
:1001300021F0004100944FF0000B23F0004350EAFF
:1001400001045ED052EA03045BD0C3F30A54C1F346
:100150000A552C44A4F2F3340194A0FB0254C1F3D9
:10016000130141F48011C3F3130343F4801301FB23
:10017000024400FB034E840A970A44EA815447EA8A
:100180008357A4FB076802958D0A05FB07854FEA94
:10019000932C04FB0C542705029D4FEA065847EAAE
:1001A0001637B5EB08056EEB070C870E920E47EA83
:1001B000811742EA8312A7FB0201B6EB0B0164EB45
:1001C00000042B0D43EA0C335E1844EB1C50DA4656
:1001D0005146E7FB0201C5F313044FEA0B3343EA30
:1001E00014534FEA0432019C43EA0603A4F10C04C1
:1001F0000294009CCDE900B400F0D6F803B0BDE84D
:10020000F08F00200146F9E72DE9F04D81EA030463
:1002100004F0004B21F0004514464FF0000A23F093
:10022000004150EA050220D054EA01021DD0C5F376
:100230000A570246C5F31303C1F31300C1F30A566C
:1002400040F4801543F48013A7EB0608101BD64634
:1002500008F2FD3873EB050002D308F1010801E054
:1002600092185B41B8F1000F03DA00200146BDE8A7
:10027000F08D00204FF48011064684460EE0171BD7
:1002800073EB050705D3121B63EB050306434CEA2A
:10029000010C49084FEA300092185B4150EA01070F
:1002A000EDD152EA030012D082EA040083EA05018C
:1002B000084305D0101BAB4106D20122002306E003
:1002C00000224FF0004302E06FF0010253101AEBDE
:1002D00006004CEB085110EB0A0041EB0B01BDE8A6
:1002E000F04D00F052B80EB540F2334102910021BA
:1002F000CDE900110A460B4600F056F803B000BDE8
:1003000070B5C1F30A5201F000450024C1F3130196
:1003100040F2FF3341F480119A4201DA002070BDAF
:1003200040F233439A42A2F2334203DC524200F0DD
:100330001CF800E090402C43F1D0404270BD30B535
:100340000B46014600202022012409E021FA02F593
:100350009D4205D303FA02F5491B04FA02F528442D
:10036000151EA2F10102F1DC30BD202A04DB203A87
:1003700021FA02F00021704721FA02F3D040C2F1C5
:100380002002914008431946704710B5141E73F1BE
:10039000000408DA401C41F1000192185B411A4345
:1003A00001D120F0010010BD2DE9F04D92469B4691
:1003B00011B1B1FA81F202E0B0FA80F22032904637
:1003C00000F052F804460F4640EA0A0041EA0B01E9
:1003D00053465A46084313D0114653EA010019D038
:1003E000C8F140025046FFF7C0FF05460E46504692
:1003F0005946424600F038F8084305D0012004E091
:1004000020463946BDE8F08D0020054346EAE076F7
:100410002C4337430A986305E40AA0EB0800002246
:10042000FD0A44EA47540A3002D500200146E9E7B4
:10043000010510196941DDE9084500196941BDE868
:10044000F04DA2E7064C074D06E0E06840F00103DE
:1004500094E8070098471034AC42F6D3FFF74AFE01
:10046000A8650008C8650008202A04DB203A00FAC5
:1004700002F1002070479140C2F1200320FA03F3FB
:100480001943904070470000B0B582B00446002088
:10049000019021688A68D2074FD1886840F0010036
:1004A000886040F22800C2F2000000684DF68361C7
:1004B000C4F21B31A0FB0101880C01900198A0B18E
:1004C000019801380190019878B1019801380190A4
:1004D000019850B1019801380190019828B1019814
:1004E0000138019001980028EAD100F029FE216826
:1004F0008968C9071CD1054603E000BF8068C007B2
:100500001AD100F01DFE411B20680329F6D3816833
:10051000C907F3D1A06A40F01000A062E06A40F081
:100520000100E062002084F82400012002B0B0BD88
:10053000002002B0B0BD00BF002002B0B0BD00007E
:10054000FEE7000040F2D800C2F2000000F072BBEB
:1005500040F29400C2F2000000F06CBB7047000053
:10056000EFF3108072B600BFFEE7000010B581B057
:100570000022009290F82420012A03D1022108468B
:1005800001B010BD4B680122062B80F8242017D83B
:10059000D0F800C003EB83035A1F1F23DCF834E0BC
:1005A00003FA02F40B682EEA040403FA02F222436F
:1005B000CCF83420092B03EB430219D936E000BFF5
:1005C000D0F800C00C2B03EB83021DD8233A1F2365
:1005D000DCF830E003FA02F40B682EEA040403FAB4
:1005E00002F22243CCF83020092B03EB43021DD842
:1005F000DCF81030072489689440A34391401943E4
:10060000CCF81010002130E0413A1F23DCF82CE038
:1006100003FA02F40B682EEA040403FA02F22243FE
:10062000CCF82C20092B03EB4302E1D9DCF80CE0D9
:100630001E3A0724896894402EEA0404914023F06E
:1006400001022143102ACCF80C100DD142F20841CE
:10065000C4F20101A1F1080294450DD0816A41F074
:1006600020018162012100E00021002280F8242085
:10067000084601B010BD00BF0A68120230D40A68F3
:10068000102B42F400020A602CD140F22801C2F281
:10069000000109684DF68362C4F21B32A1FB02120D
:1006A000910C01EB8101490000910099E1B10099A1
:1006B000013900910099C9B100990139009100995F
:1006C000B1B1009901390091009999B100990139AE
:1006D0000091009900294FF00001E8D1C5E700BF63
:1006E0000021C2E70021C0E70021BEE70021BCE7EE
:1006F0000021BAE70021B8E70068C06C704700002D
:10070000B0B5002800F0A8800446806A20B12168B6
:100710008868C0070BD114E00020E06284F8240050
:10072000204600F09BF821688868C00709D08868D7
:1007300020F00100886000F003FD21688A68D2077C
:1007400026D1A06AC0063AD4A06A41F202129043B0
:100750000230A062E069D4E9013240EA030C531E82
:10076000B3FA83F35D091346B2F5807F18BF2B02FD
:10077000207D257B01284CEA450030D135B3A56AA0
:1007800045F02005A562E56A45F00105E56226E031
:10079000054602E08868C007D3D000F0D1FC401BBA
:1007A00021680328F6D38868C007F3D0A06A40F018
:1007B0001000A062E06A40F00100E062A06AA06A56
:1007C00040F01000A0620120B0BD00BFD4F818C0F6
:1007D0004EF60005CFF6FF7505EB4C352B434D6803
:1007E000B2F5807F25F4694543EA05034B608B68C9
:1007F0004FF2FD75CFF6E17503EA050343EA000306
:100800008B6001D0012A07D122690023CFF6F07353
:1008100003EB025201E000BF0022CB6A23F4700315
:100820001A43CA62896840F6FE62CFF61F72114011
:10083000814207D10020E062A16A012262F3010136
:10084000A162B0BDA06A40F0100020F00200A062DA
:10085000E06A40F00100E0620120B0BD80B586B0E2
:10086000006842F60001C4F2010188424FF0000125
:10087000CDE90411CDE902111ED042F20041C4F2CB
:100880000101884239D141F21800C4F20200016826
:1008900041F400710160016801F400710191019956
:1008A000016841F004010160006800F0040001905B
:1008B0000198012017E000BF41F21800C4F20200C5
:1008C000016841F480610160016801F48061019177
:1008D0000199016841F004010160006800F0040022
:1008E00001900198022002900320039040F600003E
:1008F000C4F2010002A900F009FB06B080BD0000AF
:10090000F0B581B000270D460446009700F018FCB2
:1009100021688A68D20543D406464868C00503D4D6
:10092000C86A10F4700F45D040F22800C2F20000EF
:100930000768022000F0A4FE216844F624130A6927
:10094000B7FBF0F0C2F292431A4206D1CA6844F6ED
:100950002413C0F292031A425ED00A6942F2924313
:10096000C1F249231A4207D1CA6842F29243C0F247
:1009700049031A4200F0C0800A6949F24923C0F2D3
:1009800024031A424FF0FC0257D1CF681F4208BF20
:100990005422009B02FB00F7BB4253D3C3E000BFCD
:1009A000A06A40F02000A06284F82470012001B009
:1009B000F0BD00BF0868800700F1B580681C00F03A
:1009C000A880FDB90868800772D50868800700F123
:1009D000AA80086880076BD50868800700F1A380AB
:1009E0000868800764D50868800700F19C80086863
:1009F00080075DD508688007E4D594E00868800723
:100A000000F1918000F09CFB801B2168A842F5D981
:100A100008688007F2D44BE00A6942F29243C1F2BF
:100A200049231A424FF0290207D1CB6842F292477C
:100A3000C0F249073B4208BF1422009B02FB00F7AB
:100A4000BB4270D2681C4FD055BB0098B8422FD320
:100A50000098013000900098B84264D20098B842E3
:100A600026D30098013000900098B8425BD20098DD
:100A7000B8421DD30098013000900098B84252D27D
:100A80000098B84214D30098013000900098B84202
:100A9000DBD348E00098013000900098B84233D290
:100AA00000F04EFB801BA842F4D90098B842F1D266
:100AB000A06A40F00400A062002084F82400032013
:100AC00001B0F0BD0098013000900098B8422AD2E1
:100AD0000098013000900098B84224D2009801306C
:100AE00000900098B8421ED2009801300090009803
:100AF000B842E7D317E000BF5422009B02FB00F787
:100B0000BB429FD30FE000BF21680CE0086880075C
:100B100009D40868800706D4086880075CBF0868A5
:100B20005FEA8070F2D56FF012000860A06A40F4AE
:100B30000070A062886800F46020B0F5602F01D1D9
:100B4000207B18B1002001B0F0BD00BFA06A20F4E6
:100B50008070A062A06AC004F4D4A06A40F00100D2
:100B6000A062002001B0F0BD10B5044690F824004A
:100B7000012804BF022010BD012084F82400204673
:100B8000FFF782FC20B1002184F8241010BD00BFC3
:100B900042F2044C2068A16AC4F2010C40F2013216
:100BA00091430CF57F7201F580719042A16233D0C0
:100BB000A16A21F48011A1624168490504D5A16AA6
:100BC000012363F30D31A162A16A0023C9044FF030
:100BD000000144BFE16A21F00601E1626FF0020109
:100BE00084F824300160816801F46021B1F5602F40
:100BF00006D190420AD1DCF8001011F4702F05D014
:100C0000816841F480118160002010BD816841F449
:100C1000A0018160002010BDDCF8001011F4702FDD
:100C2000C6D0A16A41F48011A162DCF80010490528
:100C3000C5D4C9E710B5D0E90FCE0168DCF80030A3
:100C40000A6823FA0EF35C072AD512F0040427D0B1
:100C50000A68920603D40A6822F004020A602F226E
:100C6000C4F20202914240F20402C4F2020259DDCF
:100C70003023C4F20203994270D04423C4F2020329
:100C8000994271D05823C4F20203994278D14FF4AB
:100C900080231360C16A002940F097806EE000BF96
:100CA0009C0727D512F0020424D00A68920606D4C5
:100CB0000A6822F00A020A60012280F821202F220D
:100CC000C4F20202914240F20402C4F2020239DD8F
:100CD0003023C4F2020399425ED04423C4F20203DB
:100CE00099425DD05823C4F2020399425ED14FF479
:100CF000003363E01B0741D512F0080208BF10BDA6
:100D00000A6822F00E020A60012101FA0EF2CCF804
:100D100004208163016B4FF480720029028454D156
:100D20002CE000BF0823C4F20203994222D01C2306
:100D3000C4F20203994223D140231360C16A0029FF
:100D400043D11BE00823C4F2020399422CD01C2398
:100D5000C4F20203994229D120232FE04FF480638B
:100D60001360C16A89BB09E04FF480431360C16A14
:100D700059BB03E004231360C16A31BB10BD00BF3F
:100D800002F168044FF08063A14208BF4FF4800372
:100D90001360C16AC9B9F1E74FF400730EE000BFF8
:100DA0004FF400530AE000BF022307E002F1680499
:100DB0004FF00073A14208BF4FF400131360816A23
:100DC0000022002980F82020D8D0BDE81040084734
:100DD000002804BF012070472DE9F04101684FF65B
:100DE000F872CBF6FD724CF6CD430A44CCF6CC43F8
:100DF000A2FB03236FF0030707EA93030027C4F263
:100E0000020700F1040E00F11008C0E90F739EE81C
:100E1000045098E870010B6843F6F077BB431A431F
:100E200042EA0C0242EA0E0222432A43324342EAD9
:100E300008020A6000214FF4807281630284BDE8D9
:100E4000F041084670470000F0B590F820C0BCF1B2
:100E5000010F32D090F821C04FF0010EBCF1010F0C
:100E600080F820E026D14FF0020C80F821C04FF02E
:100E7000000CC0F838C0D0E900C4C56AC66BDCF805
:100E80000070102C27F00107CCF80070006C0EFAEF
:100E900000F070600846CCF8043004BF10460A46E3
:100EA000CCF80800CCF80C20DCF8000045B140F08C
:100EB0000E000DE0002180F820100220F0BD00BFE0
:100EC00020F00400CCF80000DCF8000040F00A003C
:100ED000CCF80000DCF8000040F00100CCF8000085
:100EE0000020F0BDB0B5044600F02AF9054640F2F6
:100EF0000400C2F200000078611C18BF044400BF67
:100F000000F01EF9401BA042FAD3B0BD2DE9F04F0E
:100F100082B00E68002E00F0038140F20C4C41F2CA
:100F200000424FF6FF7EC4F2010CC4F20102042716
:100F300000240123C1F2100E4FF0000A4FF0000907
:100F4000904208BF0327009745E000BF012704F047
:100F50000C030F229A402BEA020207FA03F34FEA2E
:100F60009A051A4346F82520D1F804B040F200450E
:100F7000C4F201055FEACB322A6854BF22EA0802B4
:100F800042EA08022A606A685FEA8B3354BF22EAA9
:100F9000080242EA08026A605FEACB23AA6854BFEB
:100FA00022EA080242EA08025FEA8B23AA60DCF820
:100FB00000204FF0010354BF22EA080242EA08026F
:100FC000CCF800200E680AF1010A36FA0AF204F1A0
:100FD000040400F0A58003FA0AF816EA080FF1D01D
:100FE0004E68764512DC122E56D8DFE806F0350B37
:100FF0004549555555555555555555555555554DC5
:10100000510000BFD1F80C9046E000BF4FF6FF72D0
:10101000C1F2210296420FDC0022C1F21102964277
:101020001AD00022C1F21202964215D00022C1F25B
:101030002102964210D02FE00022C1F222029642F5
:101040000AD00022C1F23102964205D00022C1F23C
:101050003202964220D100BF8A684AB1012A14BFE9
:10106000C0F81480C0F810804FF0080914E000BFE9
:101070004FF0040910E000BFCA6802F108090BE054
:101080004FF0000908E000BFCA6802F1040903E05C
:10109000CA6802F10C0900BF22460646BAF1080FE1
:1010A00024BF203A043637680F25954027EA050506
:1010B00009FA02F22A433260CA79D2067FF582AF7A
:1010C00041F21803C4F202031A6842F001021A60E6
:1010D0001A6802F001020192019A40F20042C4F241
:1010E0000102A2F57E762AF0030256F802B040F61D
:1010F0000002C4F20102904210D040F60042C4F255
:10110000010290423FF422AF41F20002C4F2010218
:10111000009F904208BF022719E700BF002716E78B
:1011200002B0BDE8F08F00008068084018BF0120C1
:1011300070470000002A08BF0904016170470000E1
:1011400040F2C810C2F200000068704770B5B8B332
:10115000044690F83D0028B9002084F83C00204661
:1011600000F09EF9242084F83D002068016821F0F9
:1011700001010160016841F400410160016821F44E
:101180000041016000F05AFC48F28041C0F21E01AB
:1011900040F60013D4F804E088424FF00001C0F29A
:1011A0003D0348F2A16C4FF0000238BF0121984284
:1011B000C0F2010C38BF0122E64538BF0A460AB129
:1011C000012070BD4DF68361C4F21B31A0FB0112FA
:1011D0002168950C4B684FF4967623F03F0343EA61
:1011E0009243754344F6D3564B60C1F262060B6AD4
:1011F000A5FB0656B50923F03F03E64538BF950C1D
:101200006A1C1A430A62CA6948F2A0664CF6FF7368
:10121000C0F20106B64522EA03020BD801384FEAB4
:101220004E03B0FBF3F001306FF31F30042898BF7A
:1012300004201EE0A368013863B119230EFB03F3F9
:10124000B0FBF3F001306FF31F3078B100F5804050
:1012500008E000BF0EEB4E03B0FBF3F001306FF37C
:101260001F3028B100F5004003E000BF012000E07E
:1012700001201043C8610868D4E9072320F0C000AA
:10128000104318430860886848F2FF3204F10C06E6
:1012900090434CCE18431043A5698860C86820F07D
:1012A000FF0030432843C860086840F00100086030
:1012B00000202021206484F83D10206384F83E0043
:1012C00070BD00002DE9F04383B0994616460F46E5
:1012D0000446FFF735FF94F83D1020291CD1054640
:1012E00020688169890713D5FFF72AFF401B192859
:1012F000F6D900202021206384F83D1084F83E00B8
:10130000216C41F02001216484F83C0004E000BF1E
:1013100094F83C10012903D1022003B0BDE8F0830A
:10132000012284F83C200368DDE90B180A9ADB07E8
:1013300003D1036843F001030360036823F40063EF
:101340000360212084F83D00402084F83E00002006
:10135000206462626185608D394620850020CFF669
:10136000FF70E062204632464B46CDF80080019582
:1013700001F062FB20B1012003B0BDE8F08300BFA3
:10138000208D002850D0206808F10106014651F850
:10139000142F12062CD49EB1B8F1000F5AD000BF02
:1013A000086840055ED4FFF7CBFE401B404556D889
:1013B0002068014651F8142F1206F1D518E000BF3D
:1013C0000A6852054ED40A68120611D40A685205FA
:1013D00048D40A6812060BD40A68520542D40A6837
:1013E000120605D40A6852053CD40A681206E7D5ED
:1013F000626A114611F8013B0361238D6162591E37
:101400002185678D013F678547697F070AD50F04EE
:1014100008D051780161911C6162991E2185628D0D
:10142000013A62850904B1D1204641462A4601F0BD
:101430003DFC38BB2068016841F400710160202048
:1014400084F83D00002084F83E0084F83C0003B09E
:10145000BDE8F0830868400504D4FFF771FE202042
:1014600004E000BF6FF480600860042000212022A7
:10147000216384F83D2084F83E10226C10432064E0
:1014800084F83C10206C04287FF475AF2068016854
:1014900041F400710160012003B0BDE8F083000059
:1014A00010B586B045F200410068C4F20001002288
:1014B0008842049202D006B010BD00BF41F2180469
:1014C000C4F20204206840F008002060206800F0A8
:1014D000080001900198C020029012200390032080
:1014E000059001F5384002A9FFF710FD606840F44F
:1014F00000106060606800F400100190019806B070
:1015000010BD000040F2040040F2C811C2F2000019
:10151000C2F2000100780A681044086070470000B9
:1015200080B542F20000C4F20200016841F01001EF
:101530000160032000F08EF80F2000F005F800F0A5
:1015400027F8002080BD000070B540F20406C2F20A
:10155000000640F228013278C2F200014FF47A739B
:101560000968B3FBF2F20446B1FBF2F1084601F060
:101570003BF80F2C4FF0010508D838B94FF0FF3079
:1015800021460022002500F039F87460284670BD1D
:1015900082B041F21800C4F202000168022241F058
:1015A00001010160016801F00101019101994168A7
:1015B00041F080514160406800F0805000900098F8
:1015C0000420C4F20100016862F31A61016002B0F4
:1015D00070470000002848BF7047C1B200F01F00EC
:1015E000012202FA00F04EF20012CEF2000242EAAC
:1015F000D10121F0030108607047000010B54EF6DC
:101600000C5CCEF2000CDCF80030C3F3022E8EF03E
:101610000704042C28BF0424BEF103034FF0FF3E4F
:101620000EFA04F438BF0023A14399400EFA03F3E5
:101630009A43114300F00F0200F160430901043A9C
:1016400003F564436244002848BF02F10C0319709B
:1016500010BD00004EF60C51CEF200010A684FF6A4
:10166000FF031A4060F30A2242F0806040F0FD70F0
:10167000086070472020C4F20E20012101607047ED
:1016800080B5012818D0022836D0102832D141F276
:101690000401C4F202010A6851F8040CC00129D502
:1016A000C2F383402DA3185CD2033DD440F6001250
:1016B000C0F23D02504343E041F20400C4F2020094
:1016C000C16940F202320A40B2F5817F04BF4FF493
:1016D000004080BD01F44071B1F5407F1CD0B1F5F0
:1016E000007F07D1006A49F64041800701EAE070B7
:1016F00080BD00BF002080BD00F0B4F941F20401BC
:10170000C4F2020109680222C1F3813102EB4101F6
:10171000B0FBF1F080BD00BF50F8040C4FF2244143
:10172000800301EAE07080BD0A6810A3C2F3404262
:101730009A5C41F20023C0F27A03B3FBF2F2504309
:101740000968490248BF80BD4AF6AB214000CAF68D
:10175000AA21A0FB0101480880BD00BF02030405C7
:10176000060708090A0B0C0D0E0F101001020000ED
:101770002DE9F04182B00446007841F21C06C00712
:10178000C4F202064AD0306810F0805808D13068A0
:1017900040F080503060306800F080500190019837
:1017A00047F20007C4F200073868C00512D4386851
:1017B00040F480703860FFF7C3FC05463868C00508
:1017C00008D4FFF7BDFC401B6428F7D9032002B002
:1017D000BDE8F081706810F4407012D0616801F4C7
:1017E000407188420DD0706840F24042C4F24222FB
:1017F000012320F4407113600023C007136071605F
:101800002AD17068616820F440700843B8F1000F75
:10181000706003D1306820F080503060206881070C
:1018200007D556F8181CA26821F44041114346F828
:10183000181CC00604D4002002B0BDE8F08100BF2F
:1018400056F8180CE16820F48000084346F8180C9C
:10185000002002B0BDE8F081FFF772FC054641F2BE
:10186000883700BF70688007CBD4FFF769FC401B46
:10187000B8424FF00300F5D9EBE700002DE9F04343
:1018800081B0002800F0858042F20008C4F202080E
:101890000446D8F800000D4600F0070088420CD23C
:1018A000D8F8000020F007002843C8F80000D8F856
:1018B000000000F00700A8426BD1206841F2040943
:1018C0008107C4F2020917D5410705D5D9F80010E0
:1018D00041F4E061C9F80010010705D5D9F80010FE
:1018E00041F46051C9F80010D9F80010A26821F045
:1018F000F0011143C9F80010C00741D1D8F8000029
:1019000000F00700A8420CD9D8F8000020F007002A
:101910002843C8F80000D8F8000000F00700A842EB
:1019200037D12068410707D5D9F80010E26821F4C3
:10193000E0611143C9F80010000708D5D9F800008C
:10194000216920F4605040EAC100C9F80000D9F8CC
:10195000002002F00C00082841F20020C0F27A00BA
:1019600050D146F26253C2F38341C0F60003595C82
:10197000D2033BD440F60010C0F23D00484341E0A2
:10198000606802280AD001282AD159F8041C89036A
:1019900008D4012001B0BDE8F08300BF59F8041C51
:1019A0008901F6D5D9F8001021F003010843C9F8E0
:1019B0000000FFF7C5FB064641F28837D9F8000062
:1019C000616800F00C00B0EB810F97D0FFF7B8FB17
:1019D000801BB842F2D9032001B0BDE8F08300BFFC
:1019E00059F8041C8907D4D5DCE700BFD9F80020DA
:1019F00044F25853C2F34042C0F600039A5C484395
:101A0000B0FBF2F0D9F8001044F25A52C1F30311BE
:101A1000C0F60002515C40F2280220FA01F140F2C7
:101A20000800C2F200000068C2F200021160FFF775
:101A30008BFD002001B0BDE8F083000040F22800DB
:101A400041F20401C2F20000C4F202010068096818
:101A500044F26A52C1F30221C0F60002515CC84050
:101A60007047000040F2280041F20401C2F2000079
:101A7000C4F202010068096844F26A52C1F3C2214B
:101A8000C0F60002515CC840704700002DE9F041EB
:101A900082B0002868D00446007841F20006C007F2
:101AA000C4F2020625D0706800F00C0004281BD098
:101AB000706800F00C00082802D17068C00313D4CD
:101AC0006068002800F06881B0F5A02F00F07C81EC
:101AD000B0F5803F00F07C81306820F480303060C9
:101AE000306820F4802076E13068800301D560689A
:101AF000D0B32078800718D5706810F00C0F07D08D
:101B0000706800F00C0008286ED17068C0036BD4B8
:101B10003068800702D52069012825D130686169C5
:101B200020F0F80040EAC1003060207800071FD4A0
:101B30002078400732D4E56995B1706800F00C0058
:101B4000082840F08F80012D0ED07068216A00F4C3
:101B500080328A4208D1616A00F47010884203D151
:101B6000002002B0BDE8F081012002B0BDE8F081A4
:101B7000A069002862D00020C4F242200121C0F8F0
:101B80008014FFF7DDFA0546706A800700F18C804B
:101B9000FFF7D6FA401B0228F6D92AE1F06910F0C7
:101BA000805808D1F06940F08050F061F06900F091
:101BB00080500090009847F20007C4F20007386890
:101BC000C00529D4386840F480703860FFF7B8FA4F
:101BD000054600BF3868C0051ED4FFF7B1FA401BA8
:101BE0006428F7D905E100BF2069002840F2000011
:101BF000C4F2422000F0828001210160FFF7A0FAC8
:101C0000054600BF306880073FF588AFFFF798FAB8
:101C1000401B0228F6D9ECE0E068002800F0808044
:101C2000052800F09780012800F09880306A20F0A5
:101C300001003062306A20F0040092E00020C4F21B
:101C400042200021C0F88014FFF77AFA054600BF51
:101C5000706A80077FF56CAFFFF772FA401B0228AD
:101C6000F6D9C6E00027C4F2422700203866FFF705
:101C700067FA022D05460BD13068800140F1BE8025
:101C8000FFF75EFA401B02284FF00300F4D968E723
:101C9000306880017FF564AFFFF752FA401B0228DD
:101CA0004FF00300F4D95CE740F22800C2F20000D4
:101CB000006844F6D351C1F26201A0FB0101480A59
:101CC000019000BF00BF0198411E002801913FF420
:101CD0002FAF00BF0198411E002801913FF428AFAB
:101CE00000BF0198411E002801913FF421AF00BFC1
:101CF0000198411E00280191E4D119E700210160FB
:101D0000FFF71EFA054600BF306880077FF50DAF6C
:101D1000FFF716FA401B02284FF00300F4D920E722
:101D2000306A20F001003062306A20F00400306236
:101D3000FFF706FA054641F2883700BF306A800790
:101D400020D5FFF7FDF9401BB8424FF00300F5D94D
:101D500007E700BF306A40F004003062306A40F0AC
:101D600001003062FFF7ECF9054641F2883700BF09
:101D7000306A800706D4FFF7E3F9401BB842F7D971
:101D800037E000BFB8F1000F7FF4D5AEF06920F066
:101D90008050F061CFE600BF306820F480303060C2
:101DA000306820F480203060FFF7CAF9054600BF94
:101DB000306880037FF59DAEFFF7C2F9401B6428B1
:101DC0004FF00300F4D9CCE6306840F48020306056
:101DD000306840F480303060FFF7B2F9054600BF4C
:101DE000306880033FF585AEFFF7AAF9401B6428F1
:101DF000F6D9032002B0BDE8F08100BF206AB0F53B
:101E0000803F05D17168A26821F4003111437160EF
:101E10007168626A21F474111143084370600120F3
:101E20003866FFF78DF90446306880013FF598AEBB
:101E3000FFF786F9001B02284FF00300F4D990E663
:101E400070B582B0064600208DF80600ADF804009B
:101E5000002E4FF001004DD00C4600294AD0154607
:101E600001A93046002200F04BF818B1012002B061
:101E700070BD00BF337B717BB07BF27B2370E2705F
:101E80006170A070C5B3A2F10A03DEB24FF0CD0CB1
:101E900006FB0CF6F50A05EB8505A3EB45030125CA
:101EA00005EBD626092A88BF43EA0612E270A1F1A3
:101EB0000A02D3B203FB0CF3DE0A06EB8606A2EBA2
:101EC000460205EBD323092988BF42EA031161705A
:101ED000A0F10A01CAB202FB0CF2D30A03EB83039E
:101EE000A1EB430105EBD222092888BF41EA021089
:101EF000A070002002B070BD002002B070BD0000D4
:101F00002DE9F047064600284FF0010000F0A580BB
:101F10000C46002900F0A18030684168490700F1B3
:101F2000D98091468269C169836948F6890583EA47
:101F300002073F041CBFC1691A4689B241EA024147
:101F40004BF2C532C9F2A212A1FB0223DA0A4FF406
:101F5000616302FB13139FB26F437D0D65702D010A
:101F6000A5EB5757A3EB870345F28017C0F2010793
:101F7000B942A37036D344F20753CCF22E23A1FB0F
:101F800003374AF6AB23CAF6AA23A2FB03352B0973
:101F900003EB4303A2EBC3022270026A406A4FEADA
:101FA000174880B240EA0240451A98BF4FF0FF350B
:101FB000421C4AF68062CFF6FE7208FB021A08BF86
:101FC0000546FFF7BDF8074630684168890647D4E3
:101FD000FFF7B6F8C01BB0F57A7FF5D90120BDE850
:101FE000F08700BF2270B9F1000F00F09F802178C8
:101FF000CD26A1F10A03DFB27743FD0A05EB850583
:102000006278A3EB45030125A07805EBD7270929C2
:1020100088BF43EA07112170A2F10A01CBB27343D2
:10202000DF0A07EB8707A1EB470105EBD323092A5A
:1020300088BF41EA0312A0F10A016270CAB272437A
:10204000D30A03EB8303A1EB430105EBD22209285A
:1020500088BF41EA0210A0700020BDE8F08700BFF1
:10206000416841F0100141604FEA1A4181611FFA55
:102070008AF1C161416821F010014160FFF760F809
:10208000074600BF30684068800609D4FFF758F85B
:10209000C01BB0F57A7FF5D90120BDE8F08700BFFD
:1020A000681C11D05544FFF74BF80746306841686B
:1020B000890613D4FFF744F8C01BB0F57A7F4FF0C0
:1020C0000100F3D9C9E700BF30464FF0FF3101F0FE
:1020D0007DFC18B30120BDE8F08700BF416841F0E6
:1020E00010014160290C0162A9B24162416821F0EE
:1020F00010014160FFF724F8074600BF30684068D0
:1021000080060BD4FFF71CF8C01BB0F57A7F4FF0A8
:10211000010088BFBDE8F087F0E700BF30464146C8
:1021200001F0FEFAB9F1000F7FF461AF0020BDE8C5
:10213000F087000070B500286AD00446407C20B9C2
:1021400000202074204600F073F80220607420689C
:10215000416821F008014160FEF7F2FF064600BF2A
:1021600020684568FEF7ECFF290705460ED4A81B3A
:10217000B0F57A7FF4D9012504206074284670BD3B
:10218000FEF7DEFF401BB0F57A7FF4D8216848687F
:102190008006F5D5486846F62C4240F010004860AD
:1021A0004868C4F2000220F007004860A06818B137
:1021B000536823F001035360136823F460731843DA
:1021C00010606068421C06D101200125FFF758FA13
:1021D00050B3216801388A6822F00F0242EA1042A7
:1021E0008A60CA6860F30F02CA60486820F0100075
:1021F0004860FEF7A5FF054620684068800609D4C0
:10220000FEF79EFF401BB0F57A7FF5D9B3E700BF1C
:10221000012070BD40F201100025A4F80D0001203E
:10222000E5736074284670BD04206074284670BD54
:1022300080B582B0006842F60001C4F20001884215
:1022400002D002B080BD00BFFFF714FA41F21C00BB
:10225000C4F20200016841F00061016000680121E0
:1022600000F000600190019840F23C40C4F242202E
:10227000016002B080BD0000F0B581B004460028C6
:102280004FF0010018BF002902D101B0F0BD00BF1E
:10229000207C01284FF00200F7D0012323746074E2
:1022A000CB78BAB1180900EB800003F00F0202EB03
:1022B000400348788A78070907EB870700F00F008A
:1022C00000EB4707100900EB800002F00F0202EB61
:1022D000400001E04F788878022FDAB2E373677329
:1022E000A0730FD817237B4348F63967C3F6E3077B
:1022F000A3FB0737C7F3470C02F2CF7340F2D47E3B
:102300000CE000BF47F2D916FFB2C0F214067743C3
:1023100002F5FA634FEAD74C40F2D27EC0B21044C5
:102320009D0841F27B4770446F431D0940F63E26ED
:1023300000EB93007543A0EB574000EB1540604461
:1023400082B242F293435A43A0EB12439BB25B0822
:1023500003EB12429208A2EBC202104422682073DF
:1023600008709169D0699369002683EA01073F04E8
:102370001CBFD069194680B240EA014045F6907111
:10238000C0F2010188421BD344F20751CCF22E2146
:10239000A0FB0112110C40F2A3225143A0EBC11784
:1023A000FEF7CEFE054600BF2068416889060DD4C1
:1023B000FEF7C6FE401BB0F57A7FF5D920E000BFDE
:1023C000012100206174267401B0F0BD416841F024
:1023D00010014160390C8161B9B2C161416821F0DD
:1023E00010014160FEF7ACFE054600BF2068416861
:1023F00089060BD4FEF7A4FE401BB0F57A7FF5D911
:10240000012004216174267401B0F0BD016A406AA4
:1024100080B240EA0140B84230D200F5803000F589
:10242000A347FEF78DFE054620684168890607D45C
:10243000FEF786FE401BB0F57A7FF5D9E0E700BFD6
:10244000416841F010014160390C0162B9B241624A
:10245000416821F010014160FEF772FE05462068D8
:10246000406880060AD4FEF76BFE411B0120B1F5DF
:102470007A7F4FF00401F2D9A4E700BF00200121C8
:102480006174267401B0F0BD70B5044600284FF0A9
:10249000010018BF002901D170BD00BF207C0128B8
:1024A0004FF0020008BF70BD0123237460740878E8
:1024B00002B3020902EB820200F00F0000EB4200BF
:1024C000C0B24FF4616250434A788978130903EB34
:1024D000830302F00F0202EB4302D2B2C2EB0212FC
:1024E00000EB82000A0902EB820201F00F0101EB0E
:1024F000420108E04FF4616250434A788978C2EBA8
:10250000021200EB8200C9B24618FEF719FE05461A
:1025100020684168890607D4FEF712FE401BB0F51B
:102520007A7FF5D91AE000BF416841F0100141609F
:10253000310C8161B1B2C161416821F0100141608B
:10254000FEF7FEFD054600BF2068416889060BD4F2
:10255000FEF7F6FD401BB0F57A7FF5D90120042186
:1025600061740021217470BD416821F00501416052
:10257000016A406A80B240EA0140B0422ED200F5C2
:10258000803000F5A346FEF7DBFD05462068416874
:10259000890607D4FEF7D4FD401BB0F57A7FF5D944
:1025A000DCE700BF416841F010014160310C01627D
:1025B000B1B24162416821F010014160FEF7C0FDF7
:1025C000054600BF20684068800607D4FEF7B8FDC6
:1025D000401BB0F57A7FF5D9C0E700BF002001218C
:1025E00061740021217470BD411E0020B0EB116F99
:1025F0001CBF012070474EF21002CEF20002516063
:102600004EF62351CEF20001F0230B7007219060AB
:10261000116070477047000070470000002804BF39
:102620000120704710B5044690F83D0028B90020FD
:1026300084F83C00204600F061F8242084F83D0036
:102640002068D4E90212C36823F40053C36003690D
:1026500023F440531A430261D4E904231143C268AE
:10266000194341F20C639A431143C1604169A26965
:1026700021F44071114343F60002C4F2010290427A
:10268000416103D0FFF7DAF902E000BFFFF7EAF992
:102690006268192148439100B0FBF1F048F21F51E4
:1026A000C5F2EB11A0FB01235A094FF69C73C0F64B
:1026B000FF7302FB0300322303EB0010A0FB0101B8
:1026C000F02303EA5113206803EB0212C1F3431114
:1026D00011448160016921F490410161416921F057
:1026E0002A014161C16841F40051C16000202021EC
:1026F000206484F83D1084F83E1010BD2DE9F041AF
:1027000086B040F600050446C4F20105006805F5F0
:10271000405100278842049702D006B0BDE8F081FE
:1027200041F21800C4F20200016802AE41F4804197
:102730000160016840F2440801F48041019101996F
:102740000168C4F2020841F00401016000683146EA
:1027500000F00400019001984FF4007002900220F4
:102760000390032005902846FEF7D0FB4FF48060CD
:10277000CDE90207284631460497FEF7C7FB40F231
:10278000940508F11400C2F200058026C5E900078F
:102790002846C5E90276C5E90477C5E90677FEF75C
:1027A00017FB002818BFFDF7DBFEA5636C6240F243
:1027B000D805C2F2000510200021C5E90080284696
:1027C000C5E90216C5E90411C5E90611FEF700FBCB
:1027D000002818BFFDF7C4FE65636C6206B0BDE853
:1027E000F081000070B582B0054690F83E002028C8
:1027F0000ED113460A4600294FF0010418BF002BE2
:1028000002D1204602B070BD95F83C00012803D1EA
:102810000224204602B070BD012085F83C0000244F
:1028200022202C63AA62AB852C6485F83E002968BF
:10283000A86B43F6D93C43F6254E43F66D36C0F6F9
:10284000000CC0F6000EC0F600060431C0E90ACE46
:10285000C0E90C64FEF7F8FA019428680168019158
:1028600041680191019985F83C40C16841F480714B
:10287000C160416941F001014161416941F040019C
:102880004161204602B070BD7047000070470000F3
:102890002DE9F041044690F83D0020280ED10D4668
:1028A00000294FF0010000F08E801646002A08BF74
:1028B000BDE8F08194F83C00012803D10220BDE876
:1028C000F08100BF012084F83C000020206421201A
:1028D000984684F83D00FEF733FCA684E684A168A0
:1028E0000646B1F5805F03D12069002800F0A08082
:1028F0002F460025002084F83C00E08CE0B118F160
:1029000001001BD0B8F1000F60D120680BE000BFC0
:1029100035F8021B00276FF35F214160E18C01391C
:10292000E184E18C51B3016809066DD5002FEFD029
:1029300017F8011BF1E700BF20681FE0206802E0E4
:102940000168090609D40168090606D40168090668
:102950005CBF01685FEA0161F2D51FB117F8011B86
:1029600005E000BF35F8021B00276FF35F214160CF
:10297000E18C0139E184E18C0029E4D10168490648
:102980001DD4B8F1000F3FD018F101010ED101683C
:10299000490614D4016849065CBF01685FEA4161D9
:1029A0000DD401684906F2D509E000BFFEF7C8FB67
:1029B000811B2068414527D800684006F6D52020B5
:1029C00084F83D000020BDE8F08100BF206800BF12
:1029D0000168090606D4FEF7B3FB811B2068414558
:1029E000F6D911E017B117F8011B04E035F8021B06
:1029F00000276FF35F214160E18C0139E184E18CB4
:102A00000029E5D1BAE700BFC16821F4D071C160E7
:102A1000416921F001014161202084F83D0084F8E2
:102A20003E00002084F83C000320BDE8F08100BF98
:102A300000275FE7FEE700002DE9F04381B0044680
:102A4000006890460268099D42F480720260426903
:102A5000089E9946D2070F461DD1711C11D0002E39
:102A600000F0D280FEF76CFB401BB04200F2CE803B
:102A700020684169C907F5D00DE000BF4169C90769
:102A800009D14169C90706D14169C90704BF416934
:102A90005FEAC171F2D007F0FE0101614169890767
:102AA00038D44169721C01F4806111D049BB002EF9
:102AB00000F0E880FEF744FB401BB04200F2E480E7
:102AC00020684169890725D441694905F2D518E094
:102AD000B9B9416989071DD44169490511D44169D2
:102AE000890717D4416949050BD44169890711D475
:102AF0004169490505D4416989070BD441694905F4
:102B0000E7D5016841F4007101606FF480614161B3
:102B10000420BAE000210091014651F8142F0092E0
:102B20004A680092009A0A6812061ED4002E00F02D
:102B30008580721C4DD10A68520500F187800A68B1
:102B4000120612D40A68520500F180800A68120643
:102B50000BD40A68520579D40A68120605D40A68AB
:102B6000520573D40A681206E5D5B9F1010F43D0B6
:102B70004FEA18210161014651F8142F12063BD487
:102B8000002E5BD0721C29D10A6852055ED40A68F7
:102B9000120631D40A68520558D40A6812062BD49A
:102BA0000A68520552D40A68120625D40A685205EA
:102BB0004CD40A681206E7D51EE000BFFEF7C0FA43
:102BC000401BB0423FD82068014651F8142F12062E
:102BD000CBD408684005F1D538E000BF086840054F
:102BE00034D4FEF7ADFA401BB0422CD82068014621
:102BF00051F8142F1206F1D55FFA88F10161002017
:102C000001B0BDE8F08300BFFEF79AFA0020202152
:102C1000206384F83D1084F83E00216C41F02001CF
:102C20002164216884F83C000868C00544BF4FF463
:102C300000702064032001B0BDE8F08308684005FF
:102C400004D4FEF77DFA202004E000BF6FF480601A
:102C50000860042000212022216384F83D2084F8AC
:102C60003E10226C1043206484F83C10206C042831
:102C700017D12068016841F400710160012001B0A2
:102C8000BDE8F083FEF75CFA2020002120222163BA
:102C900084F83D2084F83E10226C1043206484F8B0
:102CA0003C10012001B0BDE8F083000070B503685E
:102CB000044653F8140F400737D40E46F1B1701C88
:102CC00024D100BF1868400532D4186840072CD4BE
:102CD000186840052CD41868400726D418684005A9
:102CE00026D41868400720D41868400520D41868F6
:102CF00040074FF0000048BF70BDE3E7186840058B
:102D000016D4FEF71DFA202016E000BF154600BFBE
:102D1000186840050CD4FEF713FA401BB042F2D8F5
:102D2000236853F8140F4007F2D5002070BD00BF90
:102D30006FF480601860042000212022216384F851
:102D40003D2084F83E10226C10432064012084F85A
:102D50003C1070BDB0B584B040F2340042F2004186
:102D6000C2F20000C4F2010100244FF460220125E8
:102D700004730475C261C0E9001484600561FDF745
:102D8000BFFC002818BFFDF7EBFB40F23400C2F295
:102D9000000001A9CDE901450394FDF7E7FB0028F8
:102DA00018BFFDF7DDFB04B0B0BD0000B0B584B0C6
:102DB00040F2640042F60001C2F20000C4F20101D8
:102DC00000244FF46022012504730475C261C0E938
:102DD000001484600561FDF793FC002818BFFDF71F
:102DE000BFFB40F26400C2F2000001A9CDE9015529
:102DF0000394FDF7BBFB002818BFFDF7B1FB04B03F
:102E0000B0BD000080B582B041F21400C4F20200EF
:102E10000168002241F0010101600068002100F01A
:102E20000100019001980E20FEF7E8FB0E20FEF74E
:102E3000D1FB0F2000210022FEF7E0FB0F2002B0A3
:102E4000BDE88040FEF7C6BB2DE9F04F85B041F2EA
:102E50001800C4F20200016840F6000441F01001BD
:102E600001600168C4F2010401F0100101910199AF
:102E70000168002241F02001016001683C2601F058
:102E800020010191019901684FF0000941F004010E
:102E90000160016801F0040101910199016841F0AC
:102EA0000801016000683C2100F0080001900198D1
:102EB0002046FEF73FF904F5806528464FF4E051BF
:102EC00000224FF4E05BFEF735F920464FF4C05185
:102ED00001220127FEF72EF9CDE9016701AE4FF07F
:102EE00002084FF0030A20463146CDF80C80CDF899
:102EF00010A0FEF70BF828463146CDE901B7CDE921
:102F0000038AFEF703F84FF46040CDE90109284633
:102F100031460397FDF7FAFF4FF48070CDE90109C0
:102F2000204631460397FDF7F1FF4FF4C050CDE93D
:102F3000010720463146CDE9037AFDF7E7FF05B0EA
:102F4000BDE8F08F80B540F21C1045F20041C2F29E
:102F50000000C4F2000148F2A06200234FF4804C4C
:102F6000C0F2010280E80E00C0E9033CC0E905336D
:102F7000C0E90733FEF7EAF8002808BF80BDBDE8C6
:102F80008040FDF7EDBA000010B582B040F2044079
:102F9000C2F22030009040F2701042F60001C2F2FE
:102FA0000000C4F200014FF0FF32002480E8160058
:102FB000FFF7C0F8002818BFFDF7D2FA0820ADF8D7
:102FC000040040F27010C2F2000001A901228DF845
:102FD0000640FFF759FA002818BFFDF7C1FA40F282
:102FE0007010C2F2000069460122FFF745F900287F
:102FF00018BFFDF7B5FA02B010BD000080B540F271
:10300000841043F60001C2F20000C4F20101002363
:103010004FF00C0C4FF4165280E80E00C0E9033359
:10302000C0E905C3C361FFF7F9FA002808BF80BDF6
:10303000BDE88040FDF794BAFEE70000FEE700001F
:103040002DE9F04F85B040F21C1400254FF4807636
:103050000127C2F200040DF1120B0DF113084FF01D
:10306000000900BF09F1B0008DF8100004A8CDE9F7
:10307000000720467821002201230296FEF722F95C
:103080000DF11100CDE9000720467821002201232F
:103090008DF811500296FEF715F910208DF81200E8
:1030A0002046782100220123CDE900B70296FEF7E1
:1030B00009F94FF0000A00BF204678214022012381
:1030C0008DF81350CDE900870296FEF7FBF80AF160
:1030D00001004FFA80FABAF1FF3FEDDCB9F1070FBA
:1030E00009F10109BED305B0BDE8F08F80B5C82055
:1030F000FDF7F8FEBDE8804000F0A0BD2DE9F04FDF
:1031000089B040B20D46A2F12001002820EAE07209
:103110004FF0100748BF0235A5F1500047EA1214DE
:1031200002F00F07102BCEB240F03A8140F21C188B
:103130008DF818004FF0010B06A8C2F200084FF4FA
:103140008079CDE9000B4046782100220123CDF89B
:103150000890FEF7B7F80DF11900CDE9000B4046D5
:103160007821002201238DF81940CDF80890FEF750
:10317000A9F80DF11A00CDE9000B40467821002294
:1031800001238DF81A70CDF808904FF48079FEF77E
:1031900099F844F29A713001C0F60001085C01EB25
:1031A00006168DF81B0005970DF11B074046782188
:1031B00040220123CDE9007BCDF80890FEF782F88C
:1031C0007078317996F802A0049496F803900391F0
:1031D0008DF81B0040467821402201234FF4807473
:1031E000CDE9007B0294FEF76DF84046782140223D
:1031F00001234FF480748DF81BA0CDE9007B02946D
:10320000FEF760F840467821402201238DF81B909C
:10321000CDE9007B0294FEF755F8039878218DF8EC
:103220001B00404640220123CDE9007B0294FEF7BB
:1032300049F8707978218DF81B004046402201231F
:10324000CDE9007B0294FEF73DF8B07978218DF846
:103250001B00404640220123CDE9007B0294FEF78B
:1032600031F8F07978218DF81B0040464022012387
:10327000CDE9007B0294FEF725F8A5F14F008DF80B
:103280001C0007A8CDE9000B40467821002201234D
:103290000294FEF717F8049878218DF81D000DF1BF
:1032A0001D00CDE9000B4046002201230294FEF7E9
:1032B00009F8059878218DF81E000DF11E00CDE962
:1032C000000B4046002201230294FDF7FBFF307AF9
:1032D0000DF11F058DF81F00404678214022012383
:1032E000CDE9005B0294FDF7EDFF707A78218DF84F
:1032F0001F00404640220123CDE9005B0294FDF708
:10330000E1FFB07A78218DF81F004046402201236A
:10331000CDE9005B0294FDF7D5FFF07A78218DF8B6
:103320001F00404640220123CDE9005B0294FDF7D7
:10333000C9FF307B78218DF81F00404640220123D1
:10334000CDE9005B0294FDF7BDFF707B78218DF81D
:103350001F00404640220123CDE9005B02944FF458
:103360008074FDF7AFFFB07B78218DF81F004046D9
:1033700040220123CDE9005B02944FF48074FDF7F5
:10338000A1FFF07BCDE9005B8DF81F00404678215E
:10339000402201230294FDF795FF09B0BDE8F08FAC
:1033A00040F21C1B8DF820004FF0010A08A8C2F261
:1033B000000B4FF48078CDE9000A584678210022AE
:1033C0000123CDF80880FDF77DFF0DF12100CDE947
:1033D000000A58467821002201238DF82140CDF8BB
:1033E0000880FDF76FFF0DF12200CDE9000A584675
:1033F0007821002201238DF82270CDF80880FDF796
:1034000061FF44F2725106EB4600C0F6000111F86C
:10341000102001EB40058DF823200DF123065846BE
:10342000782140220123CDE9006ACDF80880FDF71C
:1034300049FF6878AF78EC7895F804908DF8230010
:103440005846782140220123CDE9006ACDF8088052
:10345000FDF738FF58467821402201238DF823706C
:10346000CDE9006ACDF80880FDF72CFF5846782199
:10347000402201238DF82340CDE9006ACDF8088071
:10348000FDF720FF58467821402201238DF8239034
:10349000CDE9006ACDF80880FDF714FF687978213E
:1034A0008DF82300584640220123CDE9006ACDF86B
:1034B0000880FDF707FF09B0BDE8F08F2DE9F04F58
:1034C00087B00646A1F1500040F21C158DF814009B
:1034D000012705A8C2F20005144604914FF4807A32
:1034E000CDE900072846782100220123CDF808A065
:1034F000FDF7E8FE300900F110080DF11500CDE9E7
:10350000000728467821002201238DF81580CDF888
:1035100008A0FDF7D7FE0DF1160006F00F0BCDE960
:10352000000728467821002201238DF816B0CDF837
:1035300008A0FDF7C7FE44F67A51C4EB0420C0F69C
:10354000000101EB40064FF0FF340DF1170900BFF9
:103550003019407878218DF8170028464022012341
:10356000CDE90097CDF808A0FDF7ACFE01341F2C83
:10357000EED1049840F21C144F388DF818004FF02B
:10358000010A06A8C2F200044FF48079CDE9000ACE
:103590002046782100220123CDF80890FDF792FE05
:1035A0000DF11900CDE9000A2046782100220123FF
:1035B0008DF81980CDF80890FDF784FE0DF11A0002
:1035C000CDE9000A20467821002201238DF81AB0A7
:1035D000CDF80890FDF776FEFE250DF11B0700BF24
:1035E0007019407878218DF81B0020464022012375
:1035F000CDE9007ACDF80890FDF764FE0135B5F508
:103600008F7FEDD107B0BDE8F08F00002DE9F04FBE
:1036100085B0002B049103907CD00E981C46450881
:10362000981E009058421746591E4FF000085FFA46
:1036300080FB42F2107900264FF0000A02910192BD
:1036400012E000BF0126039940F0300205FB08118B
:103650000E9BC8B20499D2B2FFF750FD08F10108E1
:10366000A0450AF1010A55D06FEA0A00C0B25845D8
:1036700002D101202AE000BF00996FEA0800A1EB07
:103680000801C9B2032900EB040101D2012009E0BD
:1036900001F0FC02002301200433DFB2974200FB5B
:1036A00009F0F9D1019F11F003010FD0012903D1D5
:1036B00000EB8000400009E04FF47A724243022997
:1036C0004FF0640108BF00FB01F21046B7FBF0F0B9
:1036D0004CF6CD41CCF6CC41A0FB0112D10801EB58
:1036E0008101002EA0EB4100ADD102994145AADD38
:1036F0000028A7D10398049905FB08000E9BC0B2CF
:103700002022FFF7FBFC002608F10108A0450AF182
:10371000010AA9D105B0BDE8F08F00007047000094
:103720002DE9F043427B837B90F80FC0002900F025
:10373000D380012901F0010E18D1BEF1000F00F075
:10374000CB800C2A00F2C8800121914041F2AA5797
:10375000394200F0B7801F2BC0F0B9800C2A40F02E
:10376000B9800CF1010C0122B5E000BF45F62949F2
:1037700045F628474DF20B7821F00101012441F272
:10378000AA55CCF28F29C0F28F27C0F2A30802E01D
:1037900001330239D1D00C2A16D804FA02F62E428F
:1037A00008D01E2B0BD90C2A0CD10CF1010C0122D4
:1037B00009E000BF16F4256F1ED01D2B02D801337F
:1037C00002E000BF013201230C2AE2D804FA02F61B
:1037D0002E4209D01F2BDBD30C2A0AD10CF1010C8D
:1037E00001220123D5E700BF16F4256F0CD01E2B54
:1037F000CED301320123CCE7022AE5D11B2B0BD813
:1038000001330222E0E700BF022AC2D11C2B0DD2F5
:1038100001330222BDE700BF1D2B0DD01C2B0FD1A1
:103820005FEA8C7216D000222FE000BF0AD01D2B59
:103830000ED101230322ACE701230322C4E700BF1A
:103840000222C1E75FEA8C720ED000222FE000BF97
:1038500002229EE71FFA8CF202FB09F24FEAB20342
:10386000BB420BD9012210E01FFA8CF202FB09F2D5
:103870004FEAB203BB4213D9012218E04FEA3212D9
:1038800042454FF0000238BF0122002A4FF00202E9
:103890004FF01D0308BF032208BF012394E700BFB8
:1038A0004FEA321242454FF0000238BF0122002A8F
:1038B0004FF002024FF01D0308BF032208BF01238F
:1038C00067E700BF11F4256F48D01E2B02D20133E9
:1038D00002E000BF01320123D1B2022980F80FC0FB
:1038E000427383730ED81722514348F63962C3F6E8
:1038F000E302A1FB0212C2F347010CF2CF7240F2C5
:10390000D47709E047F2D917C0F2140779430CF5D0
:10391000FA62C90C40F2D277DBB248F21F56634418
:10392000C5F2EB163B44A2FB066503EB9202A2EB49
:10393000551202EBD512114444F62512C2F29242FE
:10394000A1FB0223CA1A03EB52029308DB00A3EB8C
:103950009202891A0173BDE8F08300BF022ABBD12D
:103960001C2B03D201330222B6E700BF04D01D2B6B
:1039700008D101230322AFE75FEA8C7104D0012153
:103980001CE000BF0222A7E745F629421FFA8CF18E
:10399000CCF28F224A4345F628434FEAB201C0F2E7
:1039A0008F2399424FF0000108D84DF20A734FEA75
:1039B0003212C0F2A3039A4288BF012102221D23C2
:1039C000002918BF032218BF012385E770B50D46F3
:1039D0000446FDF7B5FB064620684168890607D412
:1039E000FDF7AEFB801BB0F57A7FF5D9012070BDE5
:1039F000416841F010014160290C0162A9B24162A5
:103A0000416821F010014160FDF79AFB054600BFB7
:103A100020684068800607D4FDF792FB401BB0F594
:103A20007A7FF5D9012070BD002070BD704700007D
:103A30002DE9F04381B040F23009C2F2000904469A
:103A400099F80000012C03D1C0B3013889F80000B7
:103A5000C0B2072804D92CB301B0BDE8F08300BF81
:103A600019A10A5C1AA10D5C1BA140F600070E5CAF
:103A70001BA1C4F2010711F8008038460421FDF7AC
:103A800059FB384608212A46FDF754FB38461021D9
:103A90003246FDF74FFB384620214246FDF74AFBF0
:103AA000002CD9D199F80000411CC8B2083818BFC1
:103AB000084689F8000001B0BDE8F083082089F8C5
:103AC000000001B0BDE8F08301010000000000012A
:103AD00000010101000000000000000101010000E0
:103AE0000000000000010101B0B50C46FCF7FBFB33
:103AF00048F20003C4F216030022FCF785FB002302
:103B0000C4F250030022FCF70DFBFCF7F9FB01287F
:103B1000B8BFB0BD054600BF2046FFF789FF0120B2
:103B2000FDF7E0F9013DF7D1B0BD000010B540F65A
:103B30000004C4F20104204604210022FDF7FAFA31
:103B4000204608210022FDF7F5FA20461021002228
:103B5000FDF7F0FA204620210022BDE81040FDF7D5
:103B6000E9BA0000FDF7CEBC70470000406A01686A
:103B70004A6990F83D30212B0BD112F0800208D019
:103B80000022C284CA6822F0C002CA60202280F8E3
:103B90003D204A6990F83E30222B17D112F04002A6
:103BA00014D00022C285CB6823F49073CB604B699C
:103BB00023F001034B61036B012B03D1CB6823F08E
:103BC0001003CB60202180F83E100263016C41F0AD
:103BD00010010164FEF720BD0168406A096889068A
:103BE00018D40021C1850168CA6822F48072CA60B5
:103BF0004A6922F001024A614A6922F040024A61A0
:103C0000202280F83E20026B012A03D1CA6822F0EC
:103C10001002CA60016B012918BFFEF735BE818D05
:103C2000FEF7F8BC406A016B012918BFFEF72EBEF3
:103C3000818D4908FEF7EEBCFEE70000F0B583B0C9
:103C400040F21C1440F20C07C2F200044FF48075DD
:103C50000126C2F200072046782100220123CDE987
:103C600000760295FDF72EFB781CCDE90006204674
:103C70007821002201230295FDF724FBB81CCDE931
:103C8000000620467821002201230295FDF71AFB49
:103C9000F81CCDE900062046782100220123029578
:103CA000FDF710FB381DCDE90006204678210022E3
:103CB00001230295FDF706FB781DCDE9000620469D
:103CC0007821002201230295FDF7FCFAB81DCDE909
:103CD000000620467821002201230295FDF7F2FA22
:103CE000F81DCDE900062046782100220123029527
:103CF000FDF7E8FA07F10800CDE900062046782133
:103D0000002201230295FDF7DDFA07F10900CDE954
:103D1000000620467821002201230295FDF7D2FA01
:103D200007F10A00CDE90006204678210022012390
:103D30000295FDF7C7FA07F10B00CDE90006204612
:103D40007821002201230295FDF7BCFA07F10C004F
:103D5000CDE9000620467821002201230295FDF7D7
:103D6000B1FA07F10D00CDE90006204678210022C6
:103D700001230295FDF7A6FA07F10E00CDE9000632
:103D800020467821002201230295FDF79BFA07F1D6
:103D90000F00CDE90006204678210022012302957C
:103DA000FDF790FA07F11000CDE9000620467821D2
:103DB000002201230295FDF785FA07F11100CDE9F4
:103DC000000620467821002201230295FDF77AFAA9
:103DD00007F11200CDE900062046782100220123D8
:103DE0000295FDF76FFA07F11300CDE900062046B2
:103DF0007821002201230295FDF764FA07F11400EF
:103E0000CDE9000620467821002201230295FDF726
:103E100059FA07F11500CDE9000620467821002265
:103E200001230295FDF74EFA07F11600CDE90006D1
:103E300020467821002201230295FDF743FA07F17D
:103E40001700CDE9000620467821002201230295C3
:103E5000FDF738FA07F11800CDE900062046782171
:103E6000002201230295FDF72DFA07F11900CDE993
:103E7000000620467821002201230295FDF722FA50
:103E800007F11A00CDE9000620467821002201231F
:103E90000295FDF717FA03B0F0BD000080B582B0BF
:103EA000019040F28410C2F2000001A901224FF6F5
:103EB000FF73FEF7EDFC019802B080BD9AB0FDF7EC
:103EC0002FFB0920002410904FF480300225CDE90B
:103ED0001104CDE917504FF4E0100121199010A8FA
:103EE0001594CDE913440A9414911691FDF7CEFD73
:103EF00020B1EFF3108072B6FEE700BF0F20CDE9CE
:103F00000B054FF48060CDE90E040BA802210D943F
:103F1000FDF7B4FC20B1EFF3108072B6FEE700BFEE
:103F2000032007904FF4007008904FF40040099070
:103F300007A8FDF71DFC28B1EFF3108072B600BF93
:103F4000FEE700BFFEF780FFFEF75CFFFEF702FF13
:103F5000FFF71AF8FFF752F8FEF7F4FFFEF726FF17
:103F6000FFF7C4F8FFF76CF81020002100220024AE
:103F7000FFF7A4FA202000210122FFF79FFA30204A
:103F800000210222FFF79AFA402000210322FFF7C6
:103F900095FA502000210422FFF790FA60200021BA
:103FA0000522FFF78BFA002002210622FFF786FA8E
:103FB000102002210722FFF781FA202002213A2255
:103FC0001023FFF79BF8002004210822FFF776FA60
:103FD000102004210922FFF771FA202004213A223F
:103FE0001023FFF78BF8002006210A22FFF766FA5C
:103FF000102006210B22FFF761FA202006213A2229
:104000001023FFF77BF8122005901E2004900C204F
:1040100040F2640846F272550690C2F20008C0F6FB
:1040200000054FF000091E2003902DE04FF487603B
:104030000021FFF759FDFFF779FD284600F07AFAD5
:104040004FF0010946F28C50C0F6000000F072FA01
:104050000A2000F069FA9DF82C009DF82D609DF86B
:1040600041209DF842309DF843109DF82E70CDE917
:104070000006BFA0029700F08DF9284600F05AFA1A
:104080004FF47A70FCF72EFF40F28410C2F2000069
:1040900007A90122FEF7A6FB40F23407C2F200078F
:1040A0009DF81C603846FCF75FFD38463221FCF76E
:1040B00027FC3846FCF720FB82464046FCF754FDBF
:1040C00040463221FCF71CFC4046FCF715FB40F251
:1040D0007017C2F20007834638460BA90022FDF78D
:1040E0000FFF384610A90022FDF7AAFE2820022162
:1040F0005246052310270097FFF788FA582002211F
:104100004C221023FEF7FAFF6020022178221023B0
:10411000FEF7F4FF282004215A4605230097FFF7F5
:1041200075FA582004214C221023FEF7E7FF602087
:10413000042178221023FEF7E1FF40F60040C4F28C
:1041400001004FF40051FCF7EFFF18B93220FCF7E3
:10415000C9FE0134E0B2AB214843400A00EB400005
:10416000201AC0B2A0B301285AD0022840F08080A3
:104170002820062148221023FEF7C0FF3020062108
:1041800061221023FEF7BAFF382006216E22102389
:10419000FEF7B4FF4020062164221023FEF7AEFF95
:1041A00040F60040C4F201004FF48041FCF7BCFF30
:1041B000002818BF312E69D13220FCF793FEB9F1E7
:1041C000010F4FF0010940F091804FF0010996E096
:1041D0002820062154221023FEF790FF30200621CC
:1041E00069221023FEF78AFF382006216D22102352
:1041F000FEF784FF4020062165221023FEF77EFF94
:10420000FFF794FCFFF792FC284600F093F9B9F110
:10421000010F3FF417AFB9F1020F63D018E700BFE9
:104220002820062141221023FEF768FF30200621B6
:1042300075221023FEF762FF382006217422102316
:10424000FEF75CFF402006216F221023FEF756FF89
:10425000B9F1010F03D0BAF5617F7FF6E7AEB9F18E
:10426000020FD1D040F24B40824531D8CCE700BF9D
:1042700006999DF82C00C9B288421FD104999DF877
:104280002D00C9B288423FF4D1AEBDE740F60040F0
:10429000C4F201004FF40041FCF746FF002818BFAC
:1042A000302E2CD13220FCF71DFEB9F1020F4FF059
:1042B00002091DD14FF0020921E000BF0599C9B2E2
:1042C0008842A1D103999DF82D00C9B288429BD1A3
:1042D0004FF487600121FFF707FCFFF727FC284612
:1042E00000F028F94FF002091AA0AFE6002100E023
:1042F00001214FF48760FFF7F7FBFFF717FCA6F1EA
:10430000320007283FF680AFDFE800F004080C1009
:1043100014181C200698013002E000BF06980138EE
:10432000069071E70498053004906DE7049805380D
:10433000049069E705980130059065E70598013814
:10434000059061E70398053003905DE70398053811
:10435000039059E7E5BD93E5898DE78AB6E680814C
:10436000EFBC9AE585B3E997ADEFBC810000000092
:10437000E5BD93E5898DE697B6E997B4EFBC9A253C
:10438000642D25642D25642C2025643A25643A2566
:10439000640A00000FB4054B10B503A9044A029843
:1043A00000F018F810BC5DF814FB00009D3E0008FA
:1043B0000000002002E008C8121F08C1002AFAD13C
:1043C00070477047002001E001C1121F002AFBD195
:1043D000704700002DE9FF4F89B09B460446002539
:1043E00006E025280BD05A460B999047641C6D1C9B
:1043F00020780028F5D10DB02846BDE8F08F0027C1
:10440000B8460122474900E0074314F8013F203B2A
:1044100002FA03F00842F7D120782E2819D114F8B7
:10442000010F47F004072A280ED06FF02F022078E2
:10443000A0F1300109290CD808EB880102EB4101F9
:1044400000EB0108641CF2E70A98641C50F8048B26
:104450000A9020780028CED0642808D0692806D099
:1044600075281ED05A460B9990476D1C58E00A9942
:104470004FF00A0901C90A91002802DA40422D21B1
:1044800002E0390504D52B218DF82010012103E02D
:10449000F90704D02021F7E78A4608AE0DE0002195
:1044A000FAE70A994FF00A0901C90A91F7E7494664
:1044B000FBF745FF303106F8011D0028F7D1ADEBC1
:1044C000060000F12009780701D44FF00108C84523
:1044D00002DDA8EB090000E000208046002706E08E
:1044E00008A85A46C05D0B9990476D1C7F1C574524
:1044F000F6DB04E030205A460B9990476D1CB8F16A
:104500000001A8F10108F5DC05E016F8010B5A4698
:104510000B9990476D1CB9F10001A9F10109F4DC78
:10452000641C65E7092801000149FFF7B7BC0000DA
:104530000000002010B5044601E0FFF7AFFC14F8BE
:10454000010B04490028F8D1BDE810400A20FFF70C
:10455000A5BC0000000000200102000000000000D7
:104560000000010203040607080900000000010220
:1045700003040000000000000000002F0000000005
:104580000700070000147F147F1400242A7F2A12DA
:1045900000626408132300364955225000000503C9
:1045A000000000001C224100000041221C000014F9
:1045B000083E08140008083E0808000000A060003B
:1045C00000080808080800006060000000201008CB
:1045D0000402003E5149453E0000427F4000004237
:1045E00061514946002141454B31001814127F109A
:1045F000002745454539003C4A49493000017109C9
:10460000050300364949493600064949291E00007C
:104610003636000000005636000000081422410023
:104620000014141414140000412214080002015153
:10463000090600324959513E007C1211127C007F5C
:1046400049494936003E41414122007F4141221CF7
:10465000007F49494941007F09090901003E41495C
:10466000497A007F0808087F0000417F4100002050
:1046700040413F01007F08142241007F40404040FC
:10468000007F020C027F007F0408107F003E414142
:10469000413E007F09090906003E4151215E007F2D
:1046A000091929460046494949310001017F0101A4
:1046B000003F4040403F001F2040201F003F403847
:1046C000403F006314081463000708700807006186
:1046D0005149454300007F41410000552A552A5564
:1046E000000041417F0000040201020400404040FC
:1046F0004040000001020400002054545478007F20
:104700004844443800384444442000384444487FF6
:1047100000385454541800087E0901020018A4A45B
:10472000A47C007F080404780000447D4000004021
:1047300080847D00007F102844000000417F4000FD
:10474000007C04180478007C080404780038444491
:10475000443800FC242424180018242418FC007C6D
:104760000804040800485454542000043F444020E6
:10477000003C4040207C001C2040201C003C40307D
:10478000403C004428102844001CA0A0A07C004409
:1047900064544C4414141414141400000000000059
:1047A00000000000000000000000000000F8000011
:1047B0000000000000333000000000100C06100C58
:1047C0000600000000000000000040C07840C078F3
:1047D0004000043F04043F040400007088FC0830DB
:1047E0000000001820FF211E0000F008F000E01873
:1047F000000000211C031E211E0000F0088870002C
:1048000000001E2123241927211010160E0000007D
:1048100000000000000000000000000000E018049C
:104820000200000000071820400000020418E00009
:1048300000000040201807000000404080F0804049
:1048400040000202010F01020200000000F000001F
:1048500000000101011F0101010000000000000033
:10486000000080B0700000000000000000000000A8
:104870000000000101010101010100000000000031
:1048800000000030300000000000000000008060E8
:104890001804006018060100000000E0100808106D
:1048A000E000000F102020100F00001010F8000092
:1048B00000000020203F2020000000700808088829
:1048C00070000030282422213000003008888848F9
:1048D00030000018202020110E000000C02010F829
:1048E000000000070424243F240000F808888808FA
:1048F00008000019212020110E0000E010888818FF
:104900000000000F112020110E0000380808C838E0
:1049100008000000003F00000000007088080888C0
:104920007000001C222121221C0000E01008081049
:10493000E0000000312222110F00000000C0C00082
:104940000000000000303000000000000080000087
:104950000000000080600000000000008040201087
:104960000800000102040810200040404040404080
:1049700040000404040404040400000810204080E3
:104980000000002010080402010000704808080818
:10499000F0000000003036010000C030C828E810E8
:1049A000E0000718272423140B000000C038E000A3
:1049B0000000203C23020227382008F888888870ED
:1049C0000000203F202020110E00C03008080808F9
:1049D0003800071820202010080008F808080810E0
:1049E000E000203F202020100F0008F88888E80809
:1049F0001000203F20202320180008F88888E808AD
:104A00001000203F200003000000C03008080838D4
:104A1000000007182020221E020008F808000008E5
:104A2000F808203F210101213F20000808F808086C
:104A300000000020203F2020000000000808F808A7
:104A40000800C08080807F00000008F888C0281817
:104A50000800203F20012638200008F80800000048
:104A60000000203F20202020300008F8F800F8F84F
:104A70000800203F003F003F200008F830C0000839
:104A8000F808203F200007183F00E0100808081031
:104A9000E0000F10202020100F0008F80808080878
:104AA000F000203F210101010000E010080808107B
:104AB000E0000F18242438504F0008F888888888B0
:104AC0007000203F2000030C302000708808080888
:104AD00038000038202121221C00180808F8080896
:104AE00018000000203F2000000008F8080000081F
:104AF000F808001F202020201F000878880000C828
:104B00003808000007380E010000F80800F8000817
:104B1000F800033C0700073C030008186880806821
:104B2000180820302C03032C30200838C800C8385F
:104B300008000000203F2000000010080808C838C6
:104B400008002038262120201800000000FE020264
:104B500002000000007F40404000000C30C0000018
:104B60000000000000010638C00000020202FE0042
:104B70000000004040407F000000000004020202EC
:104B80000400000000000000000000000000000021
:104B9000000080808080808080800002020400000D
:104BA0000000000000000000000000008080808005
:104BB00000000019242222223F2008F800808000F3
:104BC0000000003F112020110E00000000808080B6
:104BD0000000000E112020201100000000808088BD
:104BE000F800000E112020103F20000080808080FF
:104BF0000000001F222222221300008080F08888FB
:104C000088180020203F2020000000008080808045
:104C10008000006B94949493600008F8008080807A
:104C20000000203F210000203F20008098980000D5
:104C300000000020203F2020000000000080989805
:104C4000000000C08080807F000008F800008080A5
:104C50008000203F24022D302000000808F80000CA
:104C600000000020203F2020000080808080808085
:104C70008000203F20003F20003F80800080808017
:104C80000000203F210000203F2000008080808025
:104C90000000001F202020201F0080800080800056
:104CA000000080FFA12020110E0000000080808005
:104CB0008000000E112020A0FF8080808000808076
:104CC000800020203F2120000100000080808080A3
:104CD00080000033242424241900008080E0808098
:104CE00000000000001F20200000808000000080E5
:104CF0008000001F202020103F2080808000008046
:104D0000808000010E300806010080800080008055
:104D100080800F300C030C300F00008080008080FA
:104D200080000020312E0E31200080808000008025
:104D3000808080818E7018060100008080808080D5
:104D400080000021302C2221300000000000807CF7
:104D5000020200000000003F40400002027C800090
:104D600000000040403F0000000000000000FF0085
:104D7000000000000000FF000000109453321E32BB
:104D80005210007E4242427E0000000000000000FF
:104D90000000000000000000000000000000000013
:104DA0000000000000000000000000000000000003
:104DB00000000000000000000000000000000000F3
:104DC00000000000000000000000000000000000E3
:104DD00000000000000000000000000000000000D3
:104DE00000000000000000000000000000000000C3
:104DF00000000000000000000000000000000000B3
:104E000000000000000000000000000000000000A2
:104E10000000000000000000000000000000000092
:104E20000000000000000000000000000000000082
:104E30000000000000000000000000000000000072
:104E40000000000000000000000000000000000062
:104E50000000000000000000000000000000000052
:104E60000000000000000000000000000000000042
:104E7000000000000000000000000000FF49494958
:104E800049494949FF0000000000000000000000FF
:104E90000000000000000000000000000000000012
:104EA0000000000000000000000000000000000002
:104EB00000000000000000000000000000000000F2
:104EC00000000000000000000000000000000000E2
:104ED00000000000000000000000000000000000D2
:104EE00000000000000000000000000000000000C2
:104EF00000000000000000000000000000000000B2
:104F000000000000000000000000000000000000A1
:104F10000000000000000000000000000000000091
:104F20000000000000000000000000000000000081
:104F30000000000000000000000000000000000071
:104F40000000000000000000000000000000000061
:104F50000000000000000000000000000000000051
:104F60000000000000000000000000000000000041
:104F7000000000000000000008CC4A49484ACC1854
:104F8000007F88888482E0000000000000000000AC
:104F90000000000000000000000000000000000011
:104FA0000000000000000000000000000000000001
:104FB00000000000000000000000000000000000F1
:104FC00000000000000000000000000000000000E1
:104FD00000000000000000000000000000000000D1
:104FE00000000000000000000000000000000000C1
:104FF00000000000000000000000000000000000B1
:1050000000000000000000000000000000000000A0
:105010000000000000000000000000000000000090
:105020000000000000000000000000000000000080
:105030000000000000000000000000000000000070
:105040000000000000000000000000000000000060
:105050000000000000000000000000000000000050
:105060000000000000000000000000000000000040
:105070000000000000000000FF121252927F0000AA
:105080007E88888482E000000000000000000000AC
:105090000000000000000000000000000000000010
:1050A0000000000000000000000000000000000000
:1050B00000000000000000000000000000000000F0
:1050C00000000000000000000000000000000000E0
:1050D00000000000000000000000000000000000D0
:1050E00000000000000000000000000000000000C0
:1050F00000000000000000000000000000000000B0
:10510000000000000000000000000000000000009F
:10511000000000000000000000000000000000008F
:10512000000000000000000000000000000000007F
:10513000000000000000000000000000000000006F
:10514000000000000000000000000000000000005F
:10515000000000000000000000000000000000004F
:10516000000000000000000000000000000000003F
:10517000000000000000100CC4544C64D5464444A8
:105180004C54C4140C00000000000000000000009B
:10519000000000000000000000000000000000000F
:1051A00000000000000000000000000000000000FF
:1051B00000000000000000000000000000000000EF
:1051C00000000000000000000000000000000000DF
:1051D00000000000000000000000000000000000CF
:1051E00000000000000000000000000000000000BF
:1051F00000000000000000000000000000000000AF
:10520000000000000000000000000000000000009E
:10521000000000000000000000000000000000008E
:10522000000000000000000000000000000000007E
:10523000000000000000000000000000000000006E
:10524000000000000000000000000000000000005E
:10525000000000000000000000000000000000004E
:10526000000000000000000000000000000000003E
:1052700000000000000000FF4044625549554340D3
:1052800040FF0000000000000000000000000000DF
:10529000000000000000000000000000000000000E
:1052A00000000000000000000000000000000000FE
:1052B00000000000000000000000000000000000EE
:1052C00000000000000000000000000000000000DE
:1052D00000000000000000000000000000000000CE
:1052E00000000000000000000000000000000000BE
:1052F00000000000000000000000000000000000AE
:10530000000000000000000000000000000000009D
:10531000000000000000000000000000000000008D
:10532000000000000000000000000000000000007D
:10533000000000000000000000000000000000006D
:10534000000000000000000000000000000000005D
:10535000000000000000000000000000000000004D
:10536000000000000000000000000000000000003D
:1053700000000000100C4424140405C60404142486
:1053800044140C00000000000000000000000000B9
:10539000000000000000000000000000000000000D
:1053A00000000000000000000000000000000000FD
:1053B00000000000000000000000000000000000ED
:1053C00000000000000000000000000000000000DD
:1053D00000000000000000000000000000000000CD
:1053E00000000000000000000000000000000000BD
:1053F00000000000000000000000000000000000AD
:10540000000000000000000000000000000000009C
:10541000000000000000000000000000000000008C
:10542000000000000000000000000000000000007C
:10543000000000000000000000000000000000006C
:10544000000000000000000000000000000000005C
:10545000000000000000000000000000000000004C
:10546000000000000000000000000000000000003C
:1054700000000000003F01010101FF010111211F97
:10548000000000000000000000000000000000001C
:10549000000000000000000000000000000000000C
:1054A00000000000000000000000000000000000FC
:1054B00000000000000000000000000000000000EC
:1054C00000000000000000000000000000000000DC
:1054D00000000000000000000000000000000000CC
:1054E00000000000000000000000000000000000BC
:1054F00000000000000000000000000000000000AC
:10550000000000000000000000000000000000009B
:10551000000000000000000000000000000000008B
:10552000000000000000000000000000000000007B
:10553000000000000000000000000000000000006B
:10554000000000000000000000000000000000005B
:10555000000000000000000000000000000000004B
:10556000000000000000000000000000000000003B
:105570000000000022322AA6A26221110981010046
:10558000000000000000000000000000000000001B
:10559000000000000000000000000000000000000B
:1055A00000000000000000000000000000000000FB
:1055B00000000000000000000000000000000000EB
:1055C00000000000000000000000000000000000DB
:1055D00000000000000000000000000000000000CB
:1055E00000000000000000000000000000000000BB
:1055F00000000000000000000000000000000000AB
:10560000000000000000000000000000000000009A
:10561000000000000000000000000000000000008A
:10562000000000000000000000000000000000007A
:10563000000000000000000000000000000000006A
:10564000000000000000000000000000000000005A
:10565000000000000000000000000000000000004A
:10566000000000000000000000000000000000003A
:1056700000004222130B42827E02020A12234600DD
:10568000000000000000000000000000000000001A
:10569000000000000000000000000000000000000A
:1056A00000000000000000000000000000000000FA
:1056B00000000000000000000000000000000000EA
:1056C00000000000000000000000000000000000DA
:1056D00000000000000000000000000000000000CA
:1056E00000000000000000000000000000000000BA
:1056F00000000000000000000000000000000000AA
:105700000000000000000000000000000000000099
:105710000000000000000000000000000000000089
:105720000000000000000000000000000000000079
:105730000000000000000000000000000000000069
:105740000000000000000000000000000000000059
:105750000000000000000000000000000000000049
:105760000000000000000000000000000000000039
:105770002030AC63300088C8A8998E88A8C88800FB
:105780000000000000000000000000000000000019
:105790000000000000000000000000000000000009
:1057A00000000000000000000000000000000000F9
:1057B00000000000000000000000000000000000E9
:1057C00000000000000000000000000000000000D9
:1057D00000000000000000000000000000000000C9
:1057E00000000000000000000000000000000000B9
:1057F00000000000000000000000000000000000A9
:105800000000000000000000000000000000000098
:105810000000000000000000000000000000000088
:105820000000000000000000000000000000000078
:105830000000000000000000000000000000000068
:105840000000000000000000000000000000000058
:105850000000000000000000000000000000000048
:105860000000000000000000000000000000002216
:10587000672212128040300F00003F40407100004C
:105880000000000000000000000000000000000018
:105890000000000000000000000000000000000008
:1058A00000000000000000000000000000000000F8
:1058B00000000000000000000000000000000000E8
:1058C00000000000000000000000000000000000D8
:1058D00000000000000000000000000000000000C8
:1058E00000000000000000000000000000000000B8
:1058F00000000000000000000000000000000000A8
:105900000000000000000000000000000000000097
:105910000000000000000000000000000000000087
:105920000000000000000000000000000000000077
:105930000000000000000000000000000000000067
:105940000000000000000000000000000000000057
:105950000000000000000000000000000000000047
:105960000000000000000000000000000000100C1B
:105970002424A46425262424A42424140C00000038
:105980000000000000000000000000000000000017
:105990000000000000000000000000000000000007
:1059A00000000000000000000000000000000000F7
:1059B00000000000000000000000000000000000E7
:1059C00000000000000000000000000000000000D7
:1059D00000000000000000000000000000000000C7
:1059E00000000000000000000000000000000000B7
:1059F00000000000000000000000000000000000A7
:105A00000000000000000000000000000000000096
:105A10000000000000000000000000000000000086
:105A20000000000000000000000000000000000076
:105A30000000000000000000000000000000000066
:105A40000000000000000000000000000000000056
:105A50000000000000000000000000000000000046
:105A6000000000000000000000000000004040486E
:105A7000494949497F4949494B4840400000000095
:105A80000000000000000000000000000000000016
:105A90000000000000000000000000000000000006
:105AA00000000000000000000000000000000000F6
:105AB00000000000000000000000000000000000E6
:105AC00000000000000000000000000000000000D6
:105AD00000000000000000000000000000000000C6
